:020000040800F2
:1000000000800120094E0008F54C0008F94C00085A
:10001000214D0008234D0008254D00080000000078
:10002000000000000000000000000000274D000854
:10003000294D0008000000002B4D00082D4D000840
:10004000594E0008594E0008594E0008594E0008F4
:10005000594E0008594E0008594E0008594E0008E4
:10006000594E0008594E0008594E0008594E0008D4
:10007000594E0008594E0008594E0008594E0008C4
:10008000594E0008594E0008594E0008594E0008B4
:10009000594E0008594E0008594E0008594E0008A4
:1000A000594E0008594E0008594E0008594E000894
:1000B000594E0008594E0008594E0008594E000884
:1000C000594E0008594E0008594E0008594E000874
:1000D000594E0008594E0008594E0008594E000864
:1000E000594E0008594E0008594E0008594E000854
:1000F000594E0008594E0008594E0008594E000844
:10010000594E0008594E0008594E0008594E000833
:10011000594E0008594E0008594E0008594E000823
:10012000594E0008594E0008594E0008594E000813
:10013000594E0008594E0008594E0008594E000803
:10014000594E0008594E0008594E0008594E0008F3
:10015000594E0008594E0008594E0008594E0008E3
:10016000594E0008594E0008594E0008594E0008D3
:10017000594E0008594E0008594E00080000000072
:08018000594E0008594E000819
:1001900010B5054C237833B9044B13B10448AFF3C1
:1001A00000800123237010BD4001002000000000EA
:1001B000505D000808B5034B1BB103490348AFF37A
:1001C000008008BD0000000044010020505D0008D0
:1001D00053B94AB9002908BF00281CBF4FF0FF31AE
:1001E0004FF0FF3000F072B9ADF1080C6DE904CEAC
:1001F00000F006F8DDF804E0DDE9022304B0704702
:100200002DE9F047089E04468846002B4BD18A42D0
:10021000154667D9B2FA82F24AB1C2F1200701FA53
:1002200002F320FA07F7954047EA030894404FEAA3
:10023000154E230CB8FBFEF71FFA85FC0EFB178842
:1002400043EA084307FB0CF1994209D9EB1807F17F
:10025000FF3080F01B81994240F21881023F2B440D
:100260005B1AA4B2B3FBFEF00EFB103344EA034466
:1002700000FB0CFCA44509D92C1900F1FF3380F0D8
:100280000781A44540F2048102382C4440EA07402B
:10029000A4EB0C0400271EB1D4400023C6E90043A0
:1002A0003946BDE8F0878B4209D9002E00F0EB807B
:1002B0000027C6E9000138463946BDE8F087B3FAA1
:1002C00083F7002F47D18B4202D3824200F2FA809B
:1002D000841A61EB030301209846002EE0D0C6E9A2
:1002E0000048DDE702B9FFDEB2FA82F2002A40F0F0
:1002F0008F80491B4FEA154E1FFA85F80127B1FB85
:10030000FEFC230C0EFB1C1143EA014308FB0CF11D
:10031000994207D9EB180CF1FF3002D2994200F252
:10032000CD808446591AA3B2B1FBFEF00EFB101427
:1003300043EA044408FB00F8A04507D92C1900F152
:10034000FF3302D2A04500F2B6801846A4EB0804A1
:1003500040EA0C409FE7C7F1200CBB4022FA0CFE9C
:100360004EEA030E01FA07F420FA0CF521FA0CF319
:100370004FEA1E482543B3FBF8F92C0C08FB193350
:100380001FFA8EFA44EA034309FB0AF49C4202FA7C
:1003900007F200FA07F10BD91EEB030309F1FF3056
:1003A00080F087809C4240F28480A9F10209734466
:1003B0001B1BADB2B3FBF8F008FB103345EA034456
:1003C00000FB0AFAA24508D91EEB040400F1FF3332
:1003D0006BD2A24569D90238744440EA0940A0FBB7
:1003E0000289A4EB0A044C45C2464B4654D351D073
:1003F000002E69D0B1EB0A0564EB030404FA0CFC8F
:10040000FD40FC404CEA0505C6E90054002747E7DB
:10041000C2F1200320FA03F7954001FA02F021FA15
:1004200003F34FEA154E3843010CB3FBFEF71FFAF6
:1004300085F80EFB173341EA034107FB08F38B42B3
:1004400004FA02F407D9691807F1FF3C2FD28B4256
:100450002DD9023F2944CB1A81B2B3FBFEF00EFB2B
:10046000103341EA034100FB08F38B4207D96918B6
:1004700000F1FF3C17D28B4215D902382944C91A22
:1004800040EA07473BE73746304609E70746E7E6D5
:100490001846FBE64145ABD2B8EB020A69EB0E0207
:1004A00001381346A4E76046E9E7184695E7674632
:1004B000D1E781467CE702382C4447E7ACF1020CD7
:1004C0002B442FE7384608E73746E9E6704700BF78
:1004D00001F0FF01102A2BDB10F0070F08D010F8F5
:1004E000013B013A8B422DD010F0070F42B3F6D1F9
:1004F000F0B441EA012141EA014122F007047FF012
:1005000000070023F0E80256083C85EA010586EA68
:10051000010685FA47F5A3FA87F586FA47F6A5FAA4
:1005200087F68EB9EED1F0BC01F0FF0102F00702B0
:1005300032B110F8013B013A83EA010313B1F8D15B
:100540000020704701387047002D06BF354603383C
:10055000073815F0010F07D1013015F4807F02BF75
:10056000013015F4C03F0130F0BC0138704700BFC6
:1005700001230B70002048708870C87048601023F9
:100580008B60C86000230B61014A4A618B61704730
:100590000000C84300200870487001238B70C870A9
:1005A000486088603223CB6000230B614B61014BB4
:1005B0008B6170470000C8424FF07F530B600020F2
:1005C000704732230B600020704700207047000006
:1005D000F7EE007AB4EEE70AF1EE10FA26D9F2EE61
:1005E000047AB4EEE70AF1EE10FA24D9F3EE097AB0
:1005F000B4EEE70AF1EE10FA1FD9DFED137AB4EE8C
:10060000E70AF1EE10FA1AD9DFED107AB4EEE70A34
:10061000F1EE10FA15D9DFED0E7AB4EEE70AF1EE3D
:1006200010FA01D9072302E0062300E0012380F835
:100630002A30002070470223F9E70323F7E7042359
:10064000F5E70523F3E700BF000048420000C84279
:100650000000484310B584682CB1446941F0400162
:10066000007BA04710BD446941F08001007BA0479A
:10067000F8E710B584682CB1046941F04001007BB3
:10068000A04710BD046941F08001007BA047F8E756
:1006900090F82930012B0DD010B5044690F82A109F
:1006A0001C3000F054FC034638B9012284F829209C
:1006B000184610BD0023184670474FF0FF33F7E788
:1006C00008B5F7EE007AB4EEE70AF1EE10FA24D995
:1006D000F2EE047AB4EEE70AF1EE10FA25D9F3EE61
:1006E000097AB4EEE70AF1EE10FA20D9DFED157AB7
:1006F000B4EEE70AF1EE10FA1BD9DFED137AB4EE8F
:10070000E70AF1EE10FA16D9DFED107AB4EEE70A37
:10071000F1EE10FA11D8062100E001211C3000F0A2
:1007200016FC034658B9184608BD0221F6E7032116
:10073000F4E70421F2E70521F0E70721EEE74FF0A7
:10074000FF33F0E7000048420000C8420000484381
:1007500008B590F82930012B04D000EE101AFFF7ED
:1007600037FF08BD00EE101AFFF7AAFFF9E738B50A
:10077000054600F11C040121204600F034FCB8B904
:100780000021204600F0CDFCA8B9052385F82A30C9
:100790000021204600F0DBFB80B90021204600F05C
:1007A000FCFB034668B9012285F82820184638BDAD
:1007B0004FF0FF33FAE74FF0FF33F7E74FF0FF3327
:1007C000F4E74FF0FF33F1E708B5022905DD04290E
:1007D0000BDD08290BDC022100E000211C3000F0B9
:1007E000DCFB034628B9184608BD0121F6E70321C2
:1007F000F4E74FF0FF33F6E708B51C3000F06CFC6F
:10080000034608B9184608BD4FF0FF33FAE738B57C
:1008100090F8293013B90023184638BD044600F17A
:100820001C0500F12A01284600F0A8FB48B9002168
:10083000284600F08CFB034630B9002284F82920BA
:10084000EAE74FF0FF33E7E74FF0FF33E4E710B597
:100850000446FFF7DCFF38B90246002384F82A304B
:1008600084F82830104610BD4FF0FF32FAE7000040
:1008700030B583B00D4600F11C040DF10701204690
:1008800000F042FB00285ED10DF10601204600F089
:1008900075FB0346002859D19DF80720022A0AD08B
:1008A0009DF80620092A57D8DFE802F02F34383B9C
:1008B0003E414447564A9DF80620092A49D8DFE8B8
:1008C00002F005080C0F1215181B1E2100222A60C9
:1008D0001DE04FF07E522A6019E0214A2A6016E09E
:1008E000204A2A6013E0204A2A6010E01F4A2A604A
:1008F0000DE01F4A2A600AE01E4A2A6007E01E4AED
:100900002A6004E01D4A2A6001E000222A6018469D
:1009100003B030BD4FF07E522A60F8E7104A2A60DB
:10092000F5E7104A2A60F2E70F4A2A60EFE70F4A1C
:100930002A60ECE70E4A2A60E9E70E4A2A60E6E7F9
:100940000F4A2A60E3E74FF0FF33E0E74FF0FF3351
:10095000DDE74FF0FF33DAE74FF0FF33D7E700BFB3
:10096000000020410000C841000048420000C84289
:10097000000048430000C8430080CA440000A84566
:100980000000A84410B582B00C460DF107011C30E0
:1009900000F01AFBB0B902469DF80730032B14D8BB
:1009A000DFE803F002070A0D094B2360104602B08E
:1009B00010BD084B2360F9E7074B2360F6E7074BB0
:1009C0002360F3E74FF0FF32F0E74FF0FF32EDE73F
:1009D00048E17A3F9A99F93F9A9979401F853B41BE
:1009E00010B582B00C460DF107011C3000F0ECFA96
:1009F000B0B902469DF80730032B14D8DFE803F0A6
:100A000002070A0D094B2360104602B010BD084BC7
:100A10002360F9E7074B2360F6E7074B2360F3E712
:100A20004FF0FF32F0E74FF0FF32EDE79A9979404F
:100A3000713DFA407B147A419A993B4210B582B0DD
:100A40000C460DF107011C3000F0BEFAB0B90246A9
:100A50009DF80730032B14D8DFE803F002070A0DD6
:100A6000094B2360104602B010BD084B2360F9E724
:100A7000074B2360F6E7074B2360F3E74FF0FF32A5
:100A8000F0E74FF0FF32EDE77B147A417B14FA4137
:100A90007B147A427B943B4330B583B004460D46C9
:100AA0000DF107011C3000F02FFA48BB9DF807300C
:100AB000012B11D033B1022B18D04FF0FF33184661
:100AC00003B030BD29462046FFF75CFF03460028EF
:100AD000F5D04FF0FF33F2E729462046FFF780FFBD
:100AE00003460028EBD04FF0FF33E8E729462046C5
:100AF000FFF7A4FF03460028E1D04FF0FF33DEE705
:100B00004FF0FF33DBE710B582B00C460DF1070163
:100B10001C3000F059FAB0B902469DF80730032B9B
:100B200014D8DFE803F002070A0D02232360104601
:100B300002B010BD04232360F9E708232360F6E721
:100B400010232360F3E74FF0FF32F0E74FF0FF325E
:100B5000EDE770B584B00C4600F11C060DF10701FD
:100B6000304600F0D1F938BB9DF80730012B1ED07C
:100B700023B1022B1DD04FF0FF3215E0102502A942
:100B8000304600F047FA0246C8B9BDF9083093FB79
:100B9000F5F32380BDF90A3093FBF5F36380BDF9CB
:100BA0000C3093FBF5F5A580104604B070BD4025D0
:100BB000E5E74FF48075E2E74FF0FF32F4E74FF0DE
:100BC000FF32F1E730B585B005460C4600230193AE
:100BD00002A9FFF7BEFF70BB01A92846FFF75CFF23
:100BE000034658BBBDF9082007EE102AB8EEC77AB5
:100BF000DDED017A27EE277ABDEEC77A84ED007A23
:100C0000BDF90A2007EE102AB8EEC77A27EE277A38
:100C1000BDEEC77A84ED017ABDF90C2007EE102AEB
:100C2000B8EEC77A67EE877AFDEEE77AC4ED027A0E
:100C3000184605B030BD4FF0FF33F9E74FF0FF33F2
:100C4000F6E790F82930012B0CD010B504460021AE
:100C50001C3000F0E6F9034638B9012284F8292057
:100C6000184610BD0023184670474FF0FF33F7E7D2
:100C700090F8293013B900231846704710B5044680
:100C800002211C3000F0CDF9034620B9002284F87F
:100C90002920184610BD4FF0FF33FAE710B504467F
:100CA000FFF7E6FF28B90346002284F828201846FB
:100CB00010BD4FF0FF33FAE708B507EE901AB2EE19
:100CC000047AF4EEC77AF1EE10FA0FD9B3EE047A93
:100CD000F4EEC77AF1EE10FA10D99FED0C7AF4EE2B
:100CE000C77AF1EE10FA0BD8022100E000211C3087
:100CF00000F0AEF9034628B9184608BD0121F6E711
:100D00000321F4E74FF0FF33F6E700BF000048424D
:100D100038B5054600F11C040121204600F0BEF95B
:100D2000A0B90221204600F07CF990B903212046A9
:100D300000F08EF980B90021204600F0DBF903466F
:100D400068B9012285F82820184638BD4FF0FF33D6
:100D5000FAE74FF0FF33F7E74FF0FF33F4E74FF0D8
:100D6000FF33F1E708B51C3000F0BDF9034608B9C0
:100D7000184608BD4FF0FF33FAE7000010B582B007
:100D80000C460DF107011C3000F079F9B0B90246AC
:100D90009DF80730032B14D8DFE803F002070A0D93
:100DA000094B2360104602B010BD084B2360F9E7E1
:100DB000074B2360F6E7074B2360F3E74FF0FF3262
:100DC000F0E74FF0FF32EDE7000020410000A041C6
:100DD000000048420000C84210B582B00C46694687
:100DE0001C3000F072F960B90346BDF90020228082
:100DF000BDF902206280BDF90420A280184602B02D
:100E000010BD4FF0FF33F9E770B584B006460C46CD
:100E100002A91C3000F059F968BB054601A930460B
:100E2000FFF7CAFBBDF9083007EE103AB8EEC77AF3
:100E3000DDED017A27EE277ABDEEC77A84ED007AE0
:100E4000BDF90A3007EE103AB8EEC77A27EE277AD6
:100E5000BDEEC77A84ED017ABDF90C3007EE103A89
:100E6000B8EEC77A67EE877AFDEEE77AC4ED027ACC
:100E7000284604B070BD4FF0FF35F9E700282AD0AE
:100E800010B504460A680260486860608868A0601F
:100E9000087B207308692061486960618969A161E4
:100EA000124921621249E1616462C2B1904703466E
:100EB000C0B9A26812B194F828200AB1184610BD32
:100EC000012104F11C0000F043F903460028F5D08D
:100ED0004FF0FF33F2E74FF0FF33184670474FF003
:100EE000FF33EBE74FF0FF33E8E700BF550600089C
:100EF0007306000810B544688068A04710BD10B59F
:100F000004688068A04710BD70B582B005460E46E3
:100F1000012301AA2021FFF7EDFF9DF80440C4F34F
:100F2000C004012301AA23212846FFF7E3FF9DF80F
:100F30000430C3F3C0031CB933B90123337001E09B
:100F40000223337002B070BD00233370FAE730B56E
:100F500083B004460D46012301AA2021FFF7CAFFF2
:100F60009DF8043065F307138DF80430012301AABE
:100F700020212046FFF7C3FF03B030BD10B582B07B
:100F80000C46012301AA2021FFF7B4FF9DF804308D
:100F9000C3F30313237002B010BD30B583B0044611
:100FA0000D46012301AA2321FFF7A4FF9DF8043079
:100FB00065F305138DF80430012301AA232120468F
:100FC000FFF79DFF03B030BD10B582B00C46012382
:100FD00001AA2321FFF78EFF9DF80430C3F301130C
:100FE000237002B010BD30B583B004460D46012316
:100FF00001AA2321FFF77EFF9DF8043065F3C71394
:101000008DF80430012301AA23212046FFF777FF42
:1010100003B030BD08B506230A462821FFF76AFF52
:1010200008BD30B583B004460D46012301AA6021F6
:10103000FFF760FF9DF8043065F301038DF804307D
:10104000012301AA60212046FFF759FF03B030BDFC
:1010500030B583B004460D46012301AA6021FFF795
:1010600049FF9DF8043065F383038DF804300123B4
:1010700001AA60212046FFF742FF03B030BD10B542
:1010800082B00C46012301AA6021FFF733FF9DF8CF
:101090000430C3F38103237002B010BD30B583B0B8
:1010A00004460D46012301AA6221FFF723FF9DF8A4
:1010B000043065F304138DF80430012301AA622182
:1010C0002046FFF71CFF03B030BD08B506230A46D3
:1010D0006821FFF70FFF08BD08B501230A460F215D
:1010E000FFF708FF08BD08B501230A464F21FFF7A7
:1010F00001FF08BD30B583B004460D46012301AAA7
:101100006221FFF7F7FE9DF8043065F341038DF887
:101110000430012301AA62212046FFF7F0FE03B04C
:1011200030BD30B583B004460D46012301AA2E21FF
:10113000FFF7E0FE9DF8043065F387138DF8043067
:10114000012301AA2E212046FFF7D9FE03B030BDAE
:1011500030B583B004460D46012301AA6221FFF792
:10116000C9FE9DF8043065F345138DF80430012362
:1011700001AA62212046FFF7C2FE03B030BD000085
:1011800001230B704B7000208870C8704FF4FA6315
:101190004B6010238B60C860024B0B614B610023D6
:1011A0008B6170470020D045F2EE097AB4EEE70A71
:1011B000F1EE10FA3BD9F3EE0A7AB4EEE70AF1EE5B
:1011C00010FA39D9DFED237AB4EEE70AF1EE10FA1E
:1011D00034D9DFED217AB4EEE70AF1EE10FA2FD917
:1011E000DFED1E7AB4EEE70AF1EE10FA2AD9DFED50
:1011F0001C7AB4EEE70AF1EE10FA25D9DFED197A80
:10120000B4EEE70AF1EE10FA20D9DFED177AB4EE6A
:10121000E70AF1EE10FA1BD9DFED147AB4EEE70A13
:10122000F1EE10FA01D90A2302E0092300E00123BC
:1012300080F82B30002070470223F9E70323F7E7FB
:101240000423F5E70523F3E70623F1E70723EFE798
:101250000823EDE7000050420000D0420000504358
:101260000000D043004050440080CF44002050454F
:10127000F2EE097AB4EEE70AF1EE10FA3BD9F3EE9A
:101280000A7AB4EEE70AF1EE10FA39D9DFED237AE3
:10129000B4EEE70AF1EE10FA34D9DFED217AB4EEBC
:1012A000E70AF1EE10FA2FD9DFED1E7AB4EEE70A65
:1012B000F1EE10FA2AD9DFED1C7AB4EEE70AF1EE6E
:1012C00010FA25D9DFED197AB4EEE70AF1EE10FA3B
:1012D00020D9DFED177AB4EEE70AF1EE10FA1BD948
:1012E000DFED147AB4EEE70AF1EE10FA01D90A2321
:1012F00002E0092300E0012380F82C300020704731
:101300000223F9E70323F7E70423F5E70523F3E7CF
:101310000623F1E70723EFE70823EDE7000050423B
:101320000000D042000050430000D0430040504431
:101330000080CF440020504510B54469007BA04791
:1013400010BD10B50469007BA04710BD90F829308E
:10135000012B0DD010B5044690F82B101C3000F076
:10136000ABFC034638B9012284F82920184610BD89
:101370000023184670474FF0FF33F7E708B5F2EE49
:10138000097AB4EEE70AF1EE10FA39D9F3EE0A7AE7
:10139000B4EEE70AF1EE10FA3AD9DFED277AB4EEAF
:1013A000E70AF1EE10FA35D9DFED247AB4EEE70A58
:1013B000F1EE10FA30D9DFED227AB4EEE70AF1EE61
:1013C00010FA2BD9DFED1F7AB4EEE70AF1EE10FA2E
:1013D00026D9DFED1D7AB4EEE70AF1EE10FA21D935
:1013E000DFED1A7AB4EEE70AF1EE10FA1CD9DFED60
:1013F000187AB4EEE70AF1EE10FA17D8092100E0E6
:1014000001211C3000F058FC034688B9184608BD7D
:101410000221F6E70321F4E70421F2E70521F0E7D2
:101420000621EEE70721ECE70821EAE70A21E8E7D1
:101430004FF0FF33EAE700BF000050420000D04207
:10144000000050430000D043004050440080CF448F
:101450000020504508B590F82930012B04D000EE4B
:10146000101AFFF7A1FE08BD00EE101AFFF786FF65
:10147000F9E708B5022905DD04290BDD08290BDC95
:10148000032100E000211C3000F0D8FB034628B9FE
:10149000184608BD0221F6E70121F4E74FF0FF33BB
:1014A000F6E790F82A30012B0DD010B5044690F8DD
:1014B0002C101C3000F09CFC034638B9012284F843
:1014C0002A20184610BD0023184670474FF0FF33FE
:1014D000F7E7000008B5F2EE097AB4EEE70AF1EE9C
:1014E00010FA39D9F3EE0A7AB4EEE70AF1EE10FAFF
:1014F0003AD9DFED277AB4EEE70AF1EE10FA35D9E2
:10150000DFED247AB4EEE70AF1EE10FA30D9DFED20
:10151000227AB4EEE70AF1EE10FA2BD9DFED1F7A4A
:10152000B4EEE70AF1EE10FA26D9DFED1D7AB4EE3B
:10153000E70AF1EE10FA21D9DFED1A7AB4EEE70AE4
:10154000F1EE10FA1CD9DFED187AB4EEE70AF1EEED
:1015500010FA17D8092100E001211C3000F048FCE6
:10156000034688B9184608BD0221F6E70321F4E7CF
:101570000421F2E70521F0E70621EEE70721ECE779
:101580000821EAE70A21E8E74FF0FF33EAE700BF66
:10159000000050420000D042000050430000D04301
:1015A000004050440080CF440020504508B590F8DA
:1015B0002A30012B04D000EE101AFFF759FE08BDA7
:1015C00000EE101AFFF786FFF9E738B5054600F17F
:1015D0001C040121204600F092FC48BB012120465A
:1015E00000F05CFC38BB0021204600F0A4FC28BBC6
:1015F000042385F82B300021204600F05DFB00BB62
:101600000021204600F01AFBF0B9042385F82C30A5
:101610000021204600F0ECFBC8B90621204600F06E
:10162000A4FB0346B0B9012285F82820184638BD2E
:101630004FF0FF33FAE74FF0FF33F7E74FF0FF3398
:10164000F4E74FF0FF33F1E74FF0FF33EEE74FF0F1
:10165000FF33EBE74FF0FF33E8E708B57D2909DDFD
:10166000FA290FDDB1F5FA7F0EDDB1F57A7F0DDCD9
:10167000042100E001211C3000F077FB034638B95B
:10168000184608BD0021F6E70221F4E70621F2E73B
:101690004FF0FF33F4E708B51C3000F029FC034697
:1016A00008B9184608BD4FF0FF33FAE738B590F88F
:1016B000293013B90023184638BD044600F11C0533
:1016C00000F12B01284600F013FB48B90021284601
:1016D00000F0F2FA034630B9002284F82920EAE744
:1016E0004FF0FF33E7E74FF0FF33E4E710B582B088
:1016F0000C460DF107011C3000F0FAFA002832D137
:1017000002469DF807300B2B30D8DFE803F0060EB9
:101710001114171A1D202326290B002323601046BD
:1017200002B010BD134B2360F9E7134B2360F6E7BB
:10173000124B2360F3E7124B2360F0E7114B236059
:10174000EDE7114B2360EAE7104B2360E7E7104B0E
:101750002360E4E70F4B2360E1E70F4B2360DEE7F4
:101760000E4B2360DBE74FF0FF32D8E74FF0FF323C
:10177000D5E700BFCDCCCC3F000048410000D041B0
:10178000000050420000D042000050430000D0430F
:10179000004050440080CF44002050450020D045F8
:1017A00010B582B00C460DF107011C3000F062FA52
:1017B000B0B902469DF80730032B14D8DFE803F0D8
:1017C000020D070A094B2360104602B010BD084BFA
:1017D0002360F9E7074B2360F6E7074B2360F3E745
:1017E0004FF0FF32F0E74FF0FF32EDE723DB793DBA
:1017F00023DBF93D23DB793E23DBF93E10B582B0D4
:101800000C460DF107011C3000F034FAB0B9024665
:101810009DF80730032B14D8DFE803F0020D070A08
:1018200002232360104602B010BD04232360F9E7B1
:1018300008232360F6E710232360F3E74FF0FF321D
:10184000F0E74FF0FF32EDE710B582B00C46694685
:101850001C3000F046FB60B90346BDF90020228031
:10186000BDF902206280BDF90420A280184602B0B2
:1018700010BD4FF0FF33F9E730B585B005460C4693
:101880000023019302A91C3000F02BFB70BB01A9BF
:101890002846FFF785FF034658BBBDF9082007EE31
:1018A000102AB8EEC77ADDED017A27EE277ABDEE71
:1018B000C77A84ED007ABDF90A2007EE102AB8EE47
:1018C000C77A27EE277ABDEEC77A84ED017ABDF993
:1018D0000C2007EE102AB8EEC77A67EE877AFDEE85
:1018E000E77AC4ED027A184605B030BD4FF0FF33F9
:1018F000F9E74FF0FF33F6E738B590F82A3013B91F
:101900000023184638BD044600F11C0500F12C01E7
:10191000284600F089FA48B90021284600F068FA04
:10192000034630B9002284F82A20EAE74FF0FF335B
:10193000E7E74FF0FF33E4E710B50446FFF7B6FEE4
:1019400068B92046FFF7D8FF024658B9002384F84B
:101950002B3084F82C3084F82830104610BD4FF01E
:10196000FF32FAE74FF0FF32F7E7000010B582B020
:101970000C460DF107011C3000F056FA00282FD15B
:1019800002469DF807300A2B2DD8DFE803F0060B3E
:101990000E1114171A1D2023260000232360104661
:1019A00002B010BD114B2360F9E7114B2360F6E73D
:1019B000104B2360F3E7104B2360F0E70F4B2360DD
:1019C000EDE70F4B2360EAE70E4B2360E7E70E4B92
:1019D0002360E4E70D4B2360E1E70D4B2360DEE776
:1019E0004FF0FF32DBE74FF0FF32D8E7000048410D
:1019F0000000D041000050420000D042000050439F
:101A00000000D043004050440080CF4400205045A7
:101A10000020D04510B582B00C460DF107011C30F6
:101A200000F0BFF9D8B902469DF80730062B19D847
:101A3000DFE803F009040C180F1812000B4B2360A9
:101A4000104602B010BD0A4B2360F9E7094B236032
:101A5000F6E7094B2360F3E7084B2360F0E74FF00C
:101A6000FF32EDE74FF0FF32EAE700BF00008C40A5
:101A700000000C4100008C4100000C4200008C4230
:101A800010B582B00C460DF107011C3000F089F949
:101A9000F0B902469DF80730062B1CD8DFE803F0AA
:101AA00009040C1B101B14007D232360104602B098
:101AB00010BDFA232360F9E74FF4FA732360F5E7CA
:101AC0004FF47A732360F1E74FF4FA632360EDE794
:101AD0004FF0FF32EAE74FF0FF32E7E710B582B090
:101AE0000C4669461C3000F0F5F960B90346BDF9B3
:101AF00000202280BDF902206280BDF90420A2806E
:101B0000184602B010BD4FF0FF33F9E730B585B08D
:101B100005460C4602A91C3000F0DCF970BB01A997
:101B20002846FFF777FF034658BBBDF9082007EEAC
:101B3000102AB8EEC77ADDED017A27EE277ABDEEDE
:101B4000C77A84ED007ABDF90A2007EE102AB8EEB4
:101B5000C77A27EE277ABDEEC77A84ED017ABDF900
:101B60000C2007EE102AB8EEC77A67EE877AFDEEF2
:101B7000E77AC4ED027A184605B030BD4FF0FF3366
:101B8000F9E74FF0FF33F6E710B582B002AC04F886
:101B9000012D012322461C3000F04BF8034610B9FA
:101BA000184602B010BD4FF0FF33F9E700282CD0E3
:101BB00010B504460A680260486860608868A060E2
:101BC000087B207308692061486960618969A161A7
:101BD000134921621349E1616462D2B1904703461F
:101BE000D0B9A268022A01D0184610BD94F8282066
:101BF000002AF9D10C2212212046FFF7C5FF034627
:101C00000028F1D04FF0FF33EEE74FF0FF331846D6
:101C100070474FF0FF33E7E74FF0FF33E4E700BFD3
:101C2000391300084313000810B544688068A047C2
:101C300010BD10B504688068A04710BD30B583B0F2
:101C400004460D46012301AA1021FFF7EDFF0346CC
:101C500010B1184603B030BD9DF8043065F383031E
:101C600002AA02F8043D012310212046FFF7E1FFFC
:101C70000346EEE710B582B00C46012301AA1021FD
:101C8000FFF7D2FF9DF80430C3F38103032B10D874
:101C9000DFE803F00206090C0023237002B010BD38
:101CA00001232370FAE702232370F7E7032323704D
:101CB000F4E704232370F1E730B583B004460D4602
:101CC000012301AA1021FFF7AFFF034610B1184608
:101CD00003B030BD9DF8043065F3071302AA02F883
:101CE000043D012310212046FFF7A3FF0346EEE742
:101CF00010B582B00C46012301AA1021FFF794FF12
:101D00009DF804301B090B2B2CD8DFE803F0060AE2
:101D10000D101316191C1F2225280023237002B052
:101D200010BD01232370FAE702232370F7E7032392
:101D30002370F4E704232370F1E705232370EEE713
:101D400006232370EBE707232370E8E708232370BB
:101D5000E5E709232370E2E70A232370DFE70B237B
:101D60002370DCE70C232370D9E730B583B0044639
:101D70000D46012301AA1121FFF756FF034610B1BA
:101D8000184603B030BD9DF8043065F3430302AA42
:101D900002F8043D012311212046FFF74AFF0346C4
:101DA000EEE710B582B00C46012301AA1121FFF71E
:101DB0003BFF9DF80430C3F34203062B15D8DFE840
:101DC00003F004080B140E1411000023237002B05A
:101DD00010BD01232370FAE702232370F7E70423E1
:101DE0002370F4E706232370F1E707232370EEE75F
:101DF00030B583B004460D46012301AA1121FFF737
:101E000013FF034610B1184603B030BD9DF80430EF
:101E100065F3071302AA02F8043D012311212046AD
:101E2000FFF707FF0346EEE710B582B00C4601232B
:101E300001AA1121FFF7F8FE9DF804301B090A2BB7
:101E400029D8DFE803F0060A0D101316191C1F220B
:101E500025000023237002B010BD01232370FAE790
:101E600002232370F7E703232370F4E7042323708E
:101E7000F1E705232370EEE706232370EBE7072342
:101E80002370E8E708232370E5E709232370E2E7DE
:101E90000A232370DFE70B232370DCE730B583B020
:101EA00004460D46012301AA1221FFF7BDFE034699
:101EB00010B1184603B030BD9DF8043065F38613A9
:101EC00002AA02F8043D012312212046FFF7B1FEC9
:101ED0000346EEE708B506230A462221FFF7A4FED3
:101EE00008BD08B506230A462821FFF79DFE08BD58
:101EF00008B501230A460F21FFF796FE08BD30B54D
:101F000083B004460D46012301AA1221FFF78CFE7F
:101F1000034610B1184603B030BD9DF8043065F398
:101F2000820302AA02F8043D012312212046FFF792
:101F300080FE0346EEE730B583B004460D4601232C
:101F400001AA0A21FFF770FE034610B1184603B03C
:101F500030BD9DF8043065F3020302AA02F8043D87
:101F600001230A212046FFF764FE0346EEE7000046
:101F700010B588B004461B4B9A6D42F080529A65AA
:101F80009B6D03F080530093009B00F065FF4CB9FC
:101F9000144BDA6C42F04002DA64DB6C03F040036D
:101FA0000193019B012C12D00F4B53F82430039363
:101FB0000123049300230593022306930B4B03EBA9
:101FC000840403A9606800F071FD08B010BD054BE2
:101FD000DA6C42F00102DA64DB6C03F00103029375
:101FE000029BE1E700100240685D0008C00000208D
:101FF00008B5034610B101280BD008BD0A4800EB14
:1020000083000122094931F82310406800F0C8FE1E
:10201000F3E7054800EB83000022044931F8231060
:10202000406800F0BDFEE8E7C0000020685D0008E1
:1020300008B5034610B101280BD008BD0A4800EBD3
:1020400083000022094931F82310406800F0A8FEFF
:10205000F3E7054800EB83000122044931F823101F
:10206000406800F09DFEE8E7C0000020685D0008C1
:1020700008B5054B03EB8003044A32F8201058687A
:1020800000F093FE08BD00BFC0000020685D00089E
:1020900000B589B0114B9A6D42F480429A659A6DF1
:1020A00002F480420192019ADA6C42F00202DA6490
:1020B000DB6C03F002030293029B4FF42043039373
:1020C000022304930122059206930523079303A993
:1020D000034800F0EBFC09B05DF804FB001002407F
:1020E0000004004808B5054A936D23F480439365C6
:1020F0004FF42041024800F0C3FD08BD001002402B
:102100000004004810B5064C2046FFF7EBFF2046C0
:1021100001F0B5FF08B9002010BD6FF00700FBE724
:102120003C02002010B50C464FF47A730A46014673
:10213000044801F0BAFF08B9204610BD6FF0050051
:10214000FBE700BF3C02002008B500F039FC08BDE9
:1021500038B50446194B03604FF4827343604FF463
:10216000004383604FF4E063C360022303610123F3
:1021700043614FF4007383613023C3610023036222
:10218000436283620722C2620363436301F01FFF5D
:10219000054600B10125052000F018FC22681368EF
:1021A00043F480431360052000F010FC226813689C
:1021B00043F040031360284638BD00BF003800409C
:1021C00010B50A480A4B036002F05DF808B1002020
:1021D00010BD064C2046FFF75BFF2046FFF7B8FF17
:1021E0000028F5D06FF00700F2E700BF3C020020A6
:1021F0000038004072B60268136843F04003136071
:10220000BFF34F8FBFF34F8F0268136823F0400373
:10221000136062B603689A6812F0010FFAD01B7B54
:102220000B7003689B6813F0800FFAD17047036846
:102230009A6812F0020FFAD0197303689A6812F4C0
:10224000C05FFAD19A6812F0800FFBD1704772B666
:102250000268136843F040031360BFF34F8FBFF36E
:102260004F8F0268136823F04003136062B603685F
:102270009A6812F0010FFAD01B7B0B7003689B6801
:1022800013F0800FFAD1704703689A6812F0020FBA
:10229000FAD0197303689A6812F4C05FFAD19A6889
:1022A00012F0800FFBD1704770B590B00646022344
:1022B0000B9300238DF830302F4B09932F4B0A934B
:1022C0002F4B0E932F4B0D932F4B0F9309A92F4894
:1022D000FFF76CFC002845D10DF123012B48FFF7D7
:1022E000DAF90546002840D19DF823306A2B3FD10A
:1022F000264C01A92046FEF743FF9DF805209DF8D6
:10230000043042EA43039DF8061043EA8103236345
:102310001F4B1C601F4BA36316F0010F0BD0012A4B
:1023200009D120461C4B23641A4B1B68984705466D
:1023300008B16FF0040516F0020F0DD09DF80430BF
:10234000012B09D1114B154A5A649B6B1B68104A2B
:1023500010689847054610B9284610B070BD6FF058
:102360000405F9E76FF00605F6E76FF00605F3E7F9
:102370006FF00605F0E700BF792500085125000839
:10238000A1230008A5240008492100085C010020C1
:1023900004030020B0000020680000208C00002012
:1023A0002DE9F84391461F465FFA81F8002530E099
:1023B0001A4E00224FF48051304600F0F1FC08EB39
:1023C000050149B261F07F01154CC9B22046FFF703
:1023D0002EFF2268136823F04003136022681368FD
:1023E00023F48043136009EB05012046FFF702FF49
:1023F00001224FF48051304600F0D2FC226813686D
:1024000043F4804313602268136843F04003136071
:102410000135AF42CCDC0020BDE8F8830004004861
:102420003C0200202DE9F84391461F465FFA81F8EF
:1024300000252EE0194E00220221304600F0B0FCAB
:1024400008EB050149B261F07F01154CC9B2204685
:10245000FFF71AFF2268136823F040031360226815
:10246000136823F48043136009EB05012046FFF74E
:10247000EEFE01220221304600F092FC2268136831
:1024800043F4804313602268136843F040031360F1
:102490000135AF42CEDC0020BDE8F88300040048DF
:1024A0003C02002070B582B016461D4602AC04F80E
:1024B000011D00224FF480510F4800F071FC0121F2
:1024C0002046FFF72FFE012810D06FF005042946A3
:1024D0003046FFF727FEA8420AD101224FF480516F
:1024E000054800F05DFC204602B070BD0024EEE718
:1024F0006FF00504F1E700BF0004004870B582B03A
:1025000016461D4602AC04F8011D002202210F48A8
:1025100000F046FC01212046FFF704FE01280FD001
:102520006FF0050429463046FFF7FCFDA84209D1AB
:1025300001220221054800F033FC204602B070BDA4
:102540000024EFE76FF00504F2E700BF0004004845
:1025500008B5FFF7D7FD034608B9184608BD6FF068
:102560000503FAE708B5FFF7CDFD034608B918469D
:1025700008BD6FF00503FAE770B586B0184C01226C
:102580004FF48051204600F00BFC032304930023FA
:1025900003930125029503F1804303F50433DA6CBC
:1025A00042F00202DA64DB6C03F002030093009B4A
:1025B0004FF4805606A941F8146D204600F076FAD3
:1025C0002A463146204600F0EBFBFFF7F9FD0346B3
:1025D00010B9184606B070BD6FF00503F9E700BFEB
:1025E000000400482DE9F04389B0DFF89C80012207
:1025F0001021404600F0D4FB214E0122022130463A
:1026000000F0CEFB032306930023059301270497D4
:102610001C4CE36C43F00403E364E36C03F0040339
:102620000193019B4FF0100908AD45F8149D294610
:10263000404600F03BFA3A464946404600F0B0FBBF
:10264000E36C43F00203E364E36C03F002030293E0
:10265000029B022403942946304600F027FA3A46AA
:102660002146304600F09CFBFFF7AAFD034618B94F
:10267000184609B0BDE8F0836FF00503F8E700BF26
:10268000000400480010024000080048F0B591B076
:10269000074601230B9300238DF83030264B099316
:1026A000264B0A93264B0E93264B0D93264B0F93E6
:1026B00009A92648FEF7E2FB002833D10DF12301DA
:1026C0002248FEF74FFB064678BB9DF82330402B8F
:1026D0002ED11F4C04F1580501A92846FDF75AFFD9
:1026E0009DF805309DF8042043EA42039DF806203A
:1026F00043EA82036363174B5D60174BE36317F094
:10270000040F09D0012A07D1144B6365124B1B68D3
:1027100028469847064610B9304611B0F0BD6FF014
:102720000406F9E76FF00606F6E76FF00606F3E732
:102730006FF00606F0E700BFE525000865250008F4
:1027400025240008FD24000849210008B4010020C8
:102750005C01002004030020240000200000002071
:102760002DE9F04188B00F46064620B101282CD053
:102770006FF0010070E00846FFF796FD00286ED16B
:102780003D4B03EB86039B6BDB6801A93B4A52F888
:1027900026009847002865D19DF80430012B0BD006
:1027A000B0469DF80530012B09D09DF80630012B6D
:1027B00008D00025012432E04FF00208F1E748F08C
:1027C0000108F2E748F00408F3E70846FFF75EFF68
:1027D00000284AD1284B03EB86039B6BDB6801A9D9
:1027E000264A52F826009847002841D19DF8043027
:1027F000012B0CD04FF000089DF80530012B09D0BB
:102800009DF80630012BD4D148F00408D1E74FF0F1
:102810000208F1E748F00108F2E764000135022DF3
:1028200019D834EA0703F8D134EA0803F5D1144B78
:1028300053F8242006EB46031A440F4B03EB8203A4
:102840001B6C1B680D4A52F8260098470028E4D0FC
:102850006FF0040000E0002008B0BDE8F0814FF008
:10286000FF30F9E76FF00600F6E74FF0FF30F3E7CF
:102870006FF00600F0E700BF5C01002004030020B9
:10288000705D000808B501281ED80B46114901EB00
:102890008001096B33EA010119D111460E4A52F841
:1028A000232000EB40031A440A4B03EB82031B6C0A
:1028B0001B6A0A4A52F820009847034608B918468E
:1028C00008BD6FF00403FAE76FF00103F7E76FF05C
:1028D0000103F4E75C010020705D000804030020A0
:1028E00008B501281ED80B46114901EB8001096B80
:1028F00033EA010119D111460E4A52F8232000EBA8
:1029000040031A440A4B03EB82031B6C9B690A4A7F
:1029100052F820009847034608B9184608BD6FF0E2
:102920000403FAE76FF00103F7E76FF00103F4E740
:102930005C010020705D000804030020104B1B6840
:102940000BB90120704710B504464FF47A70B0FB04
:10295000F3F30C4A1068B0FBF3F000F091F868B99B
:102960000F2C01D901200AE0002221464FF0FF3050
:1029700000F052F8024B5C60002000E0012010BD26
:10298000CC000020D400002010B5032000F032F865
:102990000020FFF7D3FF10B10124204610BD0446EC
:1029A00002F0F8F8F9E70000034A136803490968E0
:1029B0000B441360704700BF0C030020CC000020C4
:1029C000014B1868704700BF0C03002038B504465F
:1029D000FFF7F6FF0546B4F1FF3F02D0044B1B683A
:1029E0001C44FFF7EDFF401BA042FAD338BD00BFE7
:1029F000CC000020074AD36823F4E0631B041B0CBF
:102A0000000200F4E060184340F0BF6040F4003082
:102A1000D060704700ED00E030B4174BDB68C3F3C3
:102A20000223C3F10704042C28BF04241D1D062D16
:102A300018D9033B4FF0FF3505FA04F421EA0401ED
:102A4000994005FA03F322EA0303194300280BDB3C
:102A50000901C9B200F1604000F5614080F800133F
:102A600030BC70470023E5E700F00F000901C9B250
:102A7000024B1954F4E700BF00ED00E014ED00E054
:102A80000138B0F1807F0AD2064B5860064AF02127
:102A900082F823100020986007221A6070470120F6
:102AA000704700BF10E000E000ED00E0F0B482B03D
:102AB000002341E0D0F82CC02CEA040CC6F3C0047B
:102AC0009C4044EA0C04C46286E0062400E0002432
:102AD000B4403C430235664E46F82540654C2568B7
:102AE000D44304EA05064F6817F4803F01D042EA58
:102AF0000506604D2E606D6804EA05064F6817F400
:102B0000003F01D042EA05065A4D6E60AD6804EA06
:102B100005064F6817F4801F01D042EA0506554D9F
:102B2000AE60ED682C404E6816F4001F01D042EAFA
:102B30000504504AD46001330A6832FA03F400F005
:102B4000938001249C402240F5D04D68022D01D095
:102B5000122D10D1DE08083650F826C003F0070504
:102B6000AF000F25BD402CEA050C0D69BD4045EABC
:102B70000C0540F8265006685F000325BD40ED4374
:102B800005EA060C4E6806F00306BE4046EA0C064F
:102B900006604E6806F1FF3CBCF1010F03D9112E0F
:102BA00001D0122E11D1866805EA060CCE68BE400F
:102BB00046EA0C068660466826EA040C4E68C6F3B0
:102BC00000169E4046EA0C0646604E6806F0030C6E
:102BD000BCF1030F3FF46EAFC46825408C68BC4065
:102BE0002C43C4604C6814F0805FA4D0224C256E46
:102BF00045F001052566246E04F001040194019C52
:102C00009D08AE1C1A4C54F8267003F00304A6006D
:102C10000F24B44027EA0407B0F1904F3FF457AFB8
:102C2000164CA04216D004F58064A04214D004F5DE
:102C30008064A04212D004F58064A04210D004F554
:102C40008064A0420ED004F58064A0423FF43DAF02
:102C500007243DE701243BE7022439E7032437E753
:102C6000042435E7052433E702B0F0BC704700BF09
:102C70000000014000040140001002400004004830
:102C8000002231FA02F300F08380F0B52FE006262F
:102C900000E0002606FA04F4AC4260D00568540057
:102CA000032606FA04F42543056022FA06F50835E2
:102CB00050F8256002F007074FEA870C0F2707FA44
:102CC0000CF726EA070640F825608568E4432540AE
:102CD00085604568DB431D404560C5682C40C46085
:102CE000C46A2340C362013231FA02F34FD0012398
:102CF000934013EA010EF6D09708BD1C254C54F8FA
:102D0000255002F00304A4000F2606FA04FC0CEA86
:102D10000505B0F1904FBCD01F4EB04215D006F55E
:102D20008066B04213D006F58066B04211D006F539
:102D30008066B0420FD006F58066B0420DD006F531
:102D40008066B042A3D00726A4E70126A2E70226A8
:102D5000A0E703269EE704269CE705269AE70F4C8A
:102D600026686FEA0E052E40266066682E40666073
:102D7000A6682E40A660E6683540E560054DBC1C9F
:102D800055F8246026EA0C0645F8246086E7F0BD75
:102D9000704700BF000001400004004800040140EB
:102DA0000AB9816270478161704743690B4201D162
:102DB0008161704781627047024B186800F4C060FF
:102DC000704700BF00700040B0F5007F0FD01F4B70
:102DD0001B6803F4C063B3F5806F34D01B4A1368DB
:102DE00023F4C06343F48063136000207047174BE3
:102DF0001B6803F4C063B3F5007F22D0134A136845
:102E000023F4C06343F400731360114B1A68322338
:102E100003FB02F30F4AA2FB03239B0C013300E0E8
:102E2000013B0A4A526912F4806F01D0002BF7D19E
:102E3000064B5B6913F4806F01D1002070470320BB
:102E40007047002070470020704700BF00700040AE
:102E5000D400002083DE1B43024A536843F400730E
:102E6000536070470070004030B583B00546204B7A
:102E70009B6D13F0805F0BD0FFF79EFFB0F5007FD6
:102E800017D0802D1FD82DD0702D2DD000211BE004
:102E9000174CA36D43F08053A365A36D03F08053DB
:102EA0000193019BFFF788FFA36D23F08053A36577
:102EB000E4E7802D03D9A02D03D9022104E00021ED
:102EC00002E0012100E003210A4A136823F007030E
:102ED0000B431360136803F007038B4206D00120F5
:102EE00003B030BD0221EFE70121EDE70020F7E755
:102EF0000010024000200240284A9368D26802F085
:102F0000030213F00C030AD00C2B06D0042B1FD0A5
:102F1000082B20D00020024610E0012AF6D11F4ADB
:102F2000126812F0080F0CD11C4AD2F89420C2F398
:102F300003221B4951F8222043B100200C2B0DD055
:102F40007047164A1268C2F30312F2E71046F5E71B
:102F500014480022F2E714480022EFE70F4BDB6829
:102F600003F00303022B15D0032B15D00B4BD868AD
:102F7000C0F302100130D968C1F3062102FB01F24F
:102F8000B2FBF0F2D868C0F3416001304000B2FB00
:102F9000F0F0D5E7034AE9E7034AE7E7001002400B
:102FA000845D00080024F40000127A00002800F07C
:102FB000D182F0B583B00446AD4B9D6805F00C0599
:102FC000DE6806F00306036813F0100F5ED0E5B16B
:102FD0000C2D18D0A369002B00F0B880A44A136808
:102FE00043F001031360FFF7EBFC0746A04B1B689F
:102FF00013F0020F40F09780FFF7E2FCC01B02289D
:10300000F4D90323B9E2012EE4D1994B1B6813F0E4
:10301000020F03D0A369002B00F09F82206A944B1B
:103020001B6813F0080F5ED0914B1B6803F0F00390
:1030300098425FD9FFF718FF002840F097828C4B29
:103040001A6842F008021A601A6822F0F002216A37
:103050000A431A605A6822F47F42E16942EA012277
:103060005A60FFF749FF824B9B68C3F30313814A01
:10307000D35C03F01F03D8407F4B18607F4B186868
:10308000FFF75CFC0346002840F07782236813F0CA
:10309000010F7AD0082D6FD00C2D6BD06368B3F57B
:1030A000803F00F09180B3F5A02F00F09380704B2B
:1030B0001A6822F480321A601A6822F480221A6098
:1030C0006368002B00F09380FFF77AFC0746684B9B
:1030D0001B6813F4003F58D1FFF772FCC01B642833
:1030E000F5D9032349E2624BD3F894301B0903F06E
:1030F000F0039DE75E4B1A6842F008021A601A68F6
:1031000022F0F002216A0A431A605A6822F47F42D0
:10311000E16942EA01225A60206AFFF7A5FE002811
:103120009FD0012329E2524B1A6842F008021A602C
:103130001A6822F0F002216A0A431A605A6822F4DF
:103140007F42E16942EA01225A609FE7484A1368D8
:1031500023F001031360FFF733FC0746444B1B6861
:1031600013F0020F92D0FFF72BFCC01B0228F5D9F9
:10317000032302E2032E91D13D4B1B6813F4003F61
:1031800003D06368002B00F0F381236813F0020F73
:103190004FD0042D3CD00C2D38D0E368002B78D0D4
:1031A000334A136843F480731360FFF709FC064643
:1031B0002F4B1B6813F4806F62D1FFF701FC801B5B
:1031C0000228F5D90323D8E1294A136843F4803350
:1031D000136075E703F18043A3F53C331A6842F4AA
:1031E00080221A601A6842F480321A6068E7FFF79A
:1031F000E7FB07461E4B1B6813F4003FC5D0FFF7E3
:10320000DFFBC01B6428F5D90323B6E1022EC4D12D
:10321000174B1B6813F4806F03D0E368002B00F09A
:10322000A981134A536823F0F853216943EA0163E3
:103230005360236813F0080F56D06369002B3CD00D
:103240000B4AD2F8943043F00103C2F89430FFF7F0
:10325000B7FB0646064BD3F8943013F0020F43D168
:10326000FFF7AEFB801B0228F4D9032385E100BFE2
:1032700000100240B45D0008D4000020D0000020FF
:10328000B74A536823F0F853216943EA0163536056
:10329000CFE7B34A136823F480731360FFF790FB02
:1032A0000646AF4B1B6813F4806FC2D0FFF788FB54
:1032B000801B0228F5D903235FE1A94AD2F8943094
:1032C00023F00103C2F89430FFF77AFB0646A44BC3
:1032D000D3F8943013F0020F06D0FFF771FB801B78
:1032E0000228F4D9032348E1236813F0040F7AD0AD
:1032F0009B4B9B6D13F0805F0BD1994B9A6D42F005
:1033000080529A659B6D03F080530193019B0126C7
:1033100000E00026934B1B6813F4807F26D0A3683F
:10332000012B37D0052B3DD08D4BD3F8902022F0C8
:103330000102C3F89020D3F8902022F00402C3F8D1
:103340009020A368002B3BD0FFF73AFB0746844B45
:10335000D3F8903013F0020F44D1FFF731FBC01BBC
:1033600041F288339842F2D9032306E17D4A13687B
:1033700043F480731360FFF723FB0746794B1B6808
:1033800013F4807FCBD1FFF71BFBC01B0228F5D9BC
:103390000323F2E0724AD2F8903043F00103C2F8FE
:1033A0009030CEE76E4BD3F8902042F00402C3F881
:1033B0009020D3F8902042F00102C3F89020C0E79B
:1033C000FFF7FEFA0746664BD3F8903013F0020F72
:1033D00008D0FFF7F5FAC01B41F288339842F2D9C2
:1033E0000323CAE05EBBA36A002B00F0C5800C2D4E
:1033F00076D0022B29D05A4B1A6822F080721A60BC
:103400001B6813F0205F04D1554AD36823F00303EF
:10341000D360534AD36823F0887323F48033D36096
:10342000FFF7CEFA04464E4B1B6813F0007F55D0D1
:10343000FFF7C6FA001B0228F5D903239DE0484A8E
:10344000936D23F080539365CDE7454A136823F0CD
:1034500080731360FFF7B4FA0546414B1B6813F005
:10346000007F06D0FFF7ACFA401B0228F5D90323F2
:1034700083E03B4AD3683C491940E36A206B01383A
:1034800043EA0013606B43EA0023E06B4008013815
:1034900043EA4053206C4008013843EA4063A06B84
:1034A000000943EA40430B43D360136843F0807341
:1034B0001360D36843F08073D360FFF781FA04464A
:1034C000274B1B6813F0007F06D1FFF779FA001B2A
:1034D0000228F5D9032350E000234EE000234CE0FE
:1034E000012B4DD01E4BDB6803F00301E26A9142D1
:1034F00001D0012341E003F07002216B0139B2EBEE
:10350000011F01D0012338E003F4FE42616BB2EBEE
:10351000012F01D0012330E003F40031A26B073A00
:1035200018BF0122914201D0012326E003F4C0011B
:10353000E26B5208013AB1EB425F01D001231CE07B
:1035400003F0C063226C5208013AB3EB426F19D00A
:10355000012312E001231846704701230DE000BF4C
:1035600000100240007000408C809DF9012304E0AF
:10357000012302E0012300E00023184603B0F0BD60
:103580000123FAE70023F8E7002800F09B8070B5DC
:1035900004464E4B1B6803F007038B420CD24B4A88
:1035A000136823F007030B431360136803F007034A
:1035B0008B4201D0012070BD0D46236813F0010F2E
:1035C00039D06368032B09D0022B26D063BB404A55
:1035D000126812F0020F06D10120ECE73C4A126893
:1035E00012F0007F70D03A498A6822F00302134338
:1035F0008B60FFF7E5F90646354B9B6803F00C033B
:103600006268B3EB820F16D0FFF7DAF9801B41F244
:1036100088339842F0D90320CDE72D4A126812F47E
:10362000003FE0D10120C6E7294A126812F4806FFA
:10363000D9D10120BFE7236813F0020F06D0244A36
:10364000936823F0F003A1680B4393601F4B1B6842
:1036500003F00703AB420CD91C4A136823F007039D
:103660002B431360136803F00703AB4201D0012022
:10367000A1E7236813F0040F06D0154A936823F4DA
:10368000E063E1680B439360236813F0080F07D0F1
:103690000F4A936823F46053216943EAC10393609E
:1036A000FFF72AFC0A4B9B68C3F30313094AD35C58
:1036B00003F01F03D840084B1860084B1868FFF749
:1036C0003DF978E701207047012074E700200240AF
:1036D00000100240B45D0008D4000020D00000209B
:1036E000014B1868704700BFD400002008B5FFF7F1
:1036F000F7FF054B9B68C3F30223044AD35C03F036
:103700001F03D84008BD00BF00100240C45D000880
:1037100008B5FFF7E5FF054B9B68C3F3C223044AD6
:10372000D35C03F01F03D84008BD00BF0010024067
:10373000C45D0008F8B55A4BDB6813F0030F18D0CE
:10374000574BDB6803F003030268934202D0012564
:103750002846F8BD002A00F0A080514BDB68C3F377
:10376000021301334268934201D00125F0E700259E
:103770001AE00368022B59D0032B5ED0012B01D035
:1037800001250FE0464A126812F0020F61D0444D45
:10379000EA6822F073024468013C43EA04131343CD
:1037A000EB600025002DD3D10F4604463C4A136838
:1037B00023F080631360FFF703F90646384B1B685C
:1037C00013F0006F05D0FFF7FBF8801B0228F5D936
:1037D0000325002DBCD1002F3DD131490B6923F4C5
:1037E0001F3323F44073A068E2681209520442EACE
:1037F000002213430B612A4A136843F0806313606D
:10380000FFF7DEF80646264B1B6813F0006F05D164
:10381000FFF7D6F8801B0228F5D90325002D97D194
:103820001F4A1369A1690B43136191E71C4A12688F
:1038300012F4806FABD10125B4E7194A126812F473
:10384000003FA4D1164A126812F4802F9FD101259F
:10385000A8E70125A6E7012F0FD01148026922F041
:10386000C06222F4FE42A16863695B08013B5B060B
:1038700043EA012313430361BDE70948026922F4C7
:10388000C00222F4FE42A16823695B08013B5B058C
:1038900043EA012313430361ADE7012558E700BF65
:1038A00000100240F8B5514BDB6813F0030F18D03D
:1038B0004E4BDB6803F003030268934202D00125FC
:1038C0002846F8BD002A00F08E80484BDB68C3F321
:1038D000021301334268934201D00125F0E700252D
:1038E0001AE00368022B59D0032B5ED0012B01D0C4
:1038F00001250FE03D4A126812F0020F61D03B4DE6
:10390000EA6822F073024468013C43EA041313435B
:10391000EB600025002DD3D10F460446334A1368CF
:1039200023F080531360FFF74BF806462F4B1B68BC
:1039300013F0005F05D0FFF743F8801B0228F5D98C
:103940000325002DBCD1002F3DD128494B6923F41C
:103950001F3323F44073A068E2681209520442EA5C
:10396000002213434B61214A136843F080531360D4
:10397000FFF726F806461D4B1B6813F0005F05D1C4
:10398000FFF71EF8801B0228F5D90325002D97D1DB
:10399000164A536961690B43536191E7134A1268F0
:1039A00012F4806FABD10125B4E7104A126812F40B
:1039B000003FA4D10D4A126812F4802F9FD1012537
:1039C000A8E70125A6E70948426922F0C06222F46F
:1039D000FE42A16823695B08013B5B0643EA0123C1
:1039E00013434361BFE701256AE700BF00100240AF
:1039F0002DE9F04182B00446036813F4006F2FD024
:103A0000436EB3F5800F25D008D9B3F5000F10D061
:103A1000B3F5400F40F09980002610E0002B40F0F5
:103A2000948000210430FFF785FE06463EB13746FC
:103A300018E05E4AD36843F48033D36000265B4AC3
:103A4000D2F8883023F44003616E0B43C2F888300B
:103A5000002707E000212030FFF724FF0646E5E7B6
:103A600000273E46236813F4805F15D0A36EB3F1A0
:103A7000807F7AD06CD9B3F1007F70D0B3F1407FF2
:103A80007AD1002E7BD1494AD2F8883023F0407396
:103A9000A16E0B43C2F88830236813F4003F00F096
:103AA0008E80424B9B6D13F0805F6AD13F4B9A6DC5
:103AB00042F080529A659B6D03F080530193019B05
:103AC0004FF001083A4A136843F480731360FEF71D
:103AD00077FF0546364B1B6813F4807F05D1FEF750
:103AE0006FFF401B0228F5D90326002E62D12F4B11
:103AF000D3F8903013F4407316D0D4F884209A424F
:103B000012D02A4AD2F8903023F44073D2F89010A1
:103B100041F48031C2F89010D2F8901021F4803135
:103B2000C2F89010C2F8903013F0010F2CD1002E83
:103B300040F043811D4AD2F8903023F44073D4F80A
:103B400084100B43C2F8903035E001273E4689E7E8
:103B500093B90021201DFFF7EDFD064691E7134ABA
:103B6000D36843F48033D3608BE7002104F1200055
:103B7000FFF798FE064684E701273E468CE7374666
:103B80008AE74FF000089DE7FEF71AFF0546074B4E
:103B9000D3F8903013F0020FC9D1FEF711FF401B8C
:103BA00041F288339842F2D90326C0E70010024060
:103BB000007000403746B8F1000F40F000812368E4
:103BC00013F0010F08D09D4AD2F8883023F0030388
:103BD000A16B0B43C2F88830236813F0020F08D0A2
:103BE000964AD2F8883023F00C03E16B0B43C2F8FD
:103BF0008830236813F0040F08D0904AD2F8883038
:103C000023F03003216C0B43C2F88830236813F093
:103C1000080F08D0894AD2F8883023F0C003616CBD
:103C20000B43C2F88830236813F0100F08D0834A82
:103C3000D2F8883023F44073A16C0B43C2F888306B
:103C4000236813F0200F08D07C4AD2F8883023F480
:103C50004063E16C0B43C2F88830236813F4007FA3
:103C600008D0764AD2F8883023F44023E16D0B4324
:103C7000C2F88830236813F4806F08D06F4AD2F8F6
:103C8000883023F44013216E0B43C2F88830236838
:103C900013F0400F08D0694AD2F8883023F440531B
:103CA000216D0B43C2F88830236813F0800F08D0D1
:103CB000624AD2F8883023F44043616D0B43C2F866
:103CC0008830236813F4807F08D05C4AD2F88830AB
:103CD00023F44033A16D0B43C2F88830236813F4FA
:103CE000005F0FD0554AD2F8883023F04063E16E70
:103CF0000B43C2F88830E36EB3F1006F65D0B3F1C7
:103D0000806F67D0236813F4002F0FD04B4AD2F88E
:103D1000883023F04063216F0B43C2F88830236F53
:103D2000B3F1006F5ED0B3F1806F60D0236813F4FD
:103D3000802F0FD0414AD2F8883023F04063616F62
:103D40000B43C2F88830636FB3F1006F57D0B3F103
:103D5000806F59D0236813F4804F0FD0374AD2F8C0
:103D6000883023F04053A16F0B43C2F88830A36F13
:103D7000B3F1805F50D0B3F1005F55D0236813F4E6
:103D8000004F08D02D4AD2F8883023F08043E16FED
:103D90000B43C2F88830236813F4803F09D0274AC8
:103DA000D2F8883023F00043D4F880100B43C2F8D7
:103DB0008830384602B0BDE8F0813746FBE61F4A3E
:103DC000936D23F080539365F9E6D36843F4801331
:103DD000D36097E70121201DFFF7ACFC002891D0AC
:103DE00007468FE7D36843F48013D3609EE7012131
:103DF000201DFFF79FFC002898D0074696E7D36860
:103E000043F48013D360A5E70121201DFFF792FC46
:103E100000289FD007469DE70221201DFFF78AFC5E
:103E20000028ABD00746A9E7022104F12000FFF7E4
:103E300039FD0028A2D00746A0E700BF00100240CD
:103E4000F8B505460F4616461C462B689B6837EAB0
:103E500003030CBF01230023B34237D0B4F1FF3F6B
:103E6000F3D0FEF7ADFD069BC01AA04201D2002C94
:103E7000EBD12A68536823F0E00353606B68B3F515
:103E8000827F0BD0AB6AB3F5005F14D0012385F8B5
:103E90005D30002385F85C30032018E0AB68B3F593
:103EA000004F02D0B3F5806FECD12A68136823F07D
:103EB00040031360E6E72A68136823F40053136095
:103EC0002A68136843F400531360DFE70020F8BD4D
:103ED000F8B507460C4615461E4602E0B6F1FF3F10
:103EE0000BD13A6893682340AB423BD0B4F5C06F26
:103EF000F4D1002DF2D1137BF0E7FEF761FD069BB4
:103F0000C01AB04201D2002EEBD13A68536823F0B8
:103F1000E00353607B68B3F5827F0BD0BB6AB3F5D7
:103F2000005F14D0012387F85D30002387F85C30F0
:103F3000032018E0BB68B3F5004F02D0B3F5806FE3
:103F4000ECD13A68136823F040031360E6E73A685F
:103F5000136823F4005313603A68136843F4005362
:103F60001360DFE70020F8BD70B582B004460D464F
:103F7000164600920B4600224FF4C051FFF7A8FFEF
:103F8000B8B900962B46002280212046FFF758FF43
:103F9000B8B900962B4600224FF4C0612046FFF7C7
:103FA00097FF034650B1236E43F02003236603239B
:103FB00004E0236E43F0200323660323184602B077
:103FC00070BD236E43F0200323660323F6E7002829
:103FD00053D010B504460023836290F85D30002B67
:103FE00040D0022384F85D302268136823F0400338
:103FF0001360E368B3F5E06F39D90022B3F5706F51
:1040000004D0B3F5E06F01D00021A162216B21B98A
:10401000B3F5E06F2ED9022323636368A1680B43D5
:1040200021690B4361690B43A16901F400710B43E2
:10403000E1690B43216A0B43A06A216803430B60CB
:10404000638B03F00403616A0B43616B0B43E1680C
:104050000B43216813434B6000202066012384F842
:104060005D3010BD80F85C3000F0ACFDB9E74FF476
:104070008052C3E701232363CFE70120704790B14B
:1040800010B50446022380F85D300268136823F0FF
:104090004003136000F0CCFD0020206684F85D0032
:1040A00084F85C0010BD012070472DE9F04182B01A
:1040B00090F85C40012C00F0E4801E4615468846CE
:1040C0000446012380F85C30FEF77AFC074694F83A
:1040D0005D20D2B2012A09D00220012384F85D308C
:1040E000002384F85C3002B0BDE8F081B8F1000F25
:1040F00000F0B980002D00F0B880032384F85D3013
:1041000000232366C4F83880A587E5872364A4F8D4
:104110004430A4F846302365E364A368B3F5004F48
:104120001CD023681A6812F0400F03D11A6842F0BD
:1041300040021A60E368B3F5E06F33D963680BB1EE
:10414000012D1BD1A26B23681288DA60A36B0233A6
:10415000A363E38F013B9BB2E3870FE02268136800
:1041600043F480431360DCE7FEF72AFCC01BB04237
:1041700002D3B6F1FF3F7AD1002E7AD0E38F9BB203
:10418000002B5BD023689A6812F0020FECD0A26B70
:104190001288DA60A36B0233A363E38F013B9BB207
:1041A000E387EBE763680BB1012D30D1E38F9BB25E
:1041B000012B0BD9A26B23681288DA60A36B023340
:1041C000A363E38F023B9BB2E38720E0A26B2368EB
:1041D00012781A73A36B0133A363E38F013B9BB285
:1041E000E38714E0A36B1B781373A36B0133A36302
:1041F000E38F013B9BB2E38709E0FEF7E1FBC01BC5
:10420000B04202D3B6F1FF3F35D1002E35D0E38F57
:104210009BB29BB12268936813F0020FEDD0E38F3D
:104220009BB2012BDED9A36B1B88D360A36B023337
:10423000A363E38F023B9BB2E387E8E73A4631464C
:104240002046FFF791FE08B120232366A36833B907
:1042500001932368DA6801929B680193019B236EA6
:104260006BB9002039E7012037E7012035E703204B
:1042700033E7032031E703202FE703202DE7012058
:104280002BE702202FE790F85D0070472DE9F048FA
:104290000446016883680269134342691343C26993
:1042A00013430868A24A024013430B602268536814
:1042B00023F44053E1680B435360A16922689D4B8E
:1042C0009A4201D0236A1943936823F430630B4365
:1042D00093602368984A934227D0984A934238D0F3
:1042E000974A93424ED0974A934261D0964A93425E
:1042F00074D0904A934200F08A8010258D4A9342F0
:1043000000F0AA80E369B3F5004F00F03581082D75
:1043100000F2BF81DFE815F07F0195019F01BD012B
:10432000AA01BD01BD01BD01B40102F55842D2F898
:10433000882002F00302032A09D8DFE802F0020411
:1043400081060125DAE70425D8E70825D6E71025F8
:10435000D4E702F5E632D2F8882002F00C020C2AEB
:104360000ED8DFE802F0070D0D0D090D0D0D6F0DD4
:104370000D0D0B000025C1E70425BFE70825BDE7AB
:104380001025BBE702F5E432D2F8882002F03002B3
:10439000102A09D005D9202A56D0302A06D108255E
:1043A000ACE71AB90025A9E70425A7E71025A5E77A
:1043B00002F5E232D2F8882002F0C002402A09D089
:1043C00005D9802A42D0C02A06D1082596E71AB915
:1043D000002593E7042591E710258FE702F5E032E9
:1043E000D2F8882002F44072B2F5807F0BD007D952
:1043F000B2F5007F2CD0B2F5407F06D108257DE7CD
:104400001AB900257AE7042578E7102576E702F542
:10441000C832D2F8882002F44062B2F5806F0BD027
:1044200007D9B2F5006F15D0B2F5406F06D1082557
:1044300064E71AB9002561E704255FE710255DE709
:1044400002255BE7022559E7022557E7022555E7D4
:10445000022553E7022551E7082D00F21D81DFE810
:1044600015F00C001B0114001B0111001B011B01A6
:104470001B0109004FF4004008E0FFF737F928B9A5
:104480000020D9E0FEF738FDF9E73048626802EB1A
:104490004203834200F20281B0EB023F00F200814E
:1044A000082D66D8DFE805F005652065306565658F
:1044B0005800FFF71BF90025070E06026268500836
:1044C0002B4616EB000B47F1000C58466146FBF7F4
:1044D0007FFE03462846A3F540711D4A914200F233
:1044E000E1802268D360A7E0560800252B46DFF85C
:1044F00064B04FF0000C1BEB06004CF10001FBF721
:1045000067FE03462846E6E7FEF7F6FC0025070EA1
:104510000602626850082B4616EB000B47F1000CB0
:1045200058466146FBF754FE03462846D3E700BFD2
:10453000F369FFEF00800040003801400044004074
:1045400000480040004C0040005000400024F400AF
:10455000FFFC0F00000024F45008002700252B4624
:1045600010F5000047F10001FBF732FE0346284634
:10457000B1E701200023AEE7082D49D8DFE805F0B8
:10458000051E2948344848483F00FFF7AFF86268E5
:10459000530803EB4003B3FBF2F39BB20020A3F1FB
:1045A00010014FF6EF7291427ED89AB222F00F02BC
:1045B000C3F3420313432268D3603DE0FFF7A8F83A
:1045C0006268530803EB4003B3FBF2F39BB2002095
:1045D000E5E76268530803F1F47303F59043B3FB16
:1045E000F2F39BB20020DAE7FEF786FC626853081C
:1045F00003EB4003B3FBF2F39BB20020CFE762680A
:10460000530803F58033B3FBF2F39BB20020C6E7F7
:1046100001200023C3E7FFF769F8636800EB53024A
:10462000B2FBF3F292B20020A2F110014FF6EF7349
:1046300099423BD82368DA60002222666266BDE8B0
:10464000F088FFF765F8636800EB5302B2FBF3F202
:1046500092B20020E8E763685A0802F5740202F596
:104660001052B2FBF3F292B20020DDE7FEF744FCF9
:10467000636800EB5302B2FBF3F292B20020D3E77F
:1046800063685A0802F50042B2FBF3F292B20020CE
:10469000CAE701200022C7E70120CDE70120CBE7D0
:1046A0000120C9E70120C7E70120C5E70120C3E7D2
:1046B000436A13F0010F06D00268536823F40033F5
:1046C000816A0B435360436A13F0020F06D00268FD
:1046D000536823F48033C16A0B435360436A13F079
:1046E000040F06D00268536823F48023016B0B4348
:1046F0005360436A13F0080F06D00268536823F42E
:104700000043416B0B435360436A13F0100F06D014
:104710000268936823F48053816B0B439360436A70
:1047200013F0200F06D00268936823F40053C16B86
:104730000B439360436A13F0400F0AD0026853683A
:1047400023F48013016C0B435360036CB3F5801F9B
:104750000BD0436A13F0800F06D00268536823F42D
:104760000023816C0B43536070470268536823F445
:10477000C003416C0B435360EBE72DE9F041054664
:104780000F4616469846069C2B68DB6937EA0303FA
:104790000CBF01230023B3421CD1B4F1FF3FF3D07F
:1047A000FEF70EF9A0EB0800A04201D8002CEBD1D7
:1047B0002A68136823F4D07313602A68936823F07F
:1047C0000103936020236B67AB67002385F870308B
:1047D000032000E00020BDE8F0812DE9F04182B027
:1047E0001E46436F202B55D104460D4690460029A6
:1047F00055D0002A55D090F87030012B53D00123AA
:1048000080F870300023C36721234367FEF7D8F890
:104810000746A4F85080A4F85280A368B3F5805FDF
:1048200002D04FF0000813E0236913B14FF00008E5
:104830000EE0A84600250BE038F8023B2268C3F3DF
:1048400008031385B4F85230013B9BB2A4F85230F0
:10485000B4F852309BB273B100963B4600228021DF
:104860002046FFF78AFF00BB002DE5D0236815F82E
:10487000012B1A85E6E700963B46002240212046A0
:10488000FFF77BFF034690B920226267002284F87D
:10489000702000E00223184602B0BDE8F081012339
:1048A000F9E70123F7E70223F5E70323F3E70323FF
:1048B000F1E730B583B004460023C367FEF780F804
:1048C000054623681B6813F0080F0CD123681B688A
:1048D00013F0040F15D120236367A367002084F829
:1048E000700003B030BD6FF07E430093034600229A
:1048F0004FF400112046FFF740FF0028E6D00320C8
:10490000EFE76FF07E4300932B4600224FF48001C7
:104910002046FFF732FF0028DDD00320E1E768B32F
:1049200010B50446436F03B32423636722681368FA
:1049300023F0010313602046FFF7A8FC012813D0E1
:10494000636ABBB92268536823F4904353602268BA
:10495000936823F02A0393602268136843F00103ED
:1049600013602046FFF7A5FF10BD80F8703000F0FF
:1049700077F9D9E72046FFF79BFEE3E70120704770
:10498000F0B58BB000250595069507950895099516
:104990001F4CE36C43F00803E364E36C03F008038B
:1049A0000193019BE36C43F00403E364E36C03F0C5
:1049B00004030293029BE36C43F04003E364E36C63
:1049C00003F040030393039BFEF746FAE36C43F0C6
:1049D0000203E364E36C03F002030493049B0D4CB5
:1049E00001224FF480512046FEF7DAF94FF4805649
:1049F0000596012706970795089505A92046FEF715
:104A000055F83A4631462046FEF7CAF90BB0F0BDDC
:104A1000001002400004004808B50F480F4B036027
:104A20004FF4827343604FF4004383604FF440734C
:104A3000C3600023036143614FF400728261C3616C
:104A40000362436283620722C262036308234363F3
:104A5000FFF7BDFA08BD00BF10030020003800407A
:104A600008B50948094B03604FF4E1334360002364
:104A70008360C36003610C2242618361C36103628E
:104A80004362FFF74CFF08BD740300200050004054
:104A900000B583B002A941F8040D4FF6FF7301225F
:104AA0000348FFF79AFE019803B05DF804FB00BFCE
:104AB0007403002030B5B9B02422002128A800F0EA
:104AC000F7F9002422942394249425942694882290
:104AD0002146684600F0ECF9022327934FF48072D8
:104AE0002A9210252B9531933293012233920A2278
:104AF0003492072235923693379327A8FEF756FA59
:104B00000F23229303232393249425942694042192
:104B100022A8FEF739FD009512946846FEF768FF5B
:104B20004FF40070FEF750F939B030BD00B583B0D6
:104B3000FDF72AFFFFF7BEFF144800F035FAFFF734
:104B40001FFFFFF769FFFFF78BFF0020FDF710FA4B
:104B500002210020FDF704FE022211460020FDF78D
:104B6000BFFE6A4602210020FDF78CFEBDF904302D
:104B7000BDF90220BDF90010054800F0A1F90020A0
:104B8000FDF776FA3220FDF721FFEAE7CC5D000859
:104B9000E85D000882B00A4B1A6E42F001021A6604
:104BA0001A6E02F001020092009A9A6D42F0805251
:104BB0009A659B6D03F080530193019B02B070478F
:104BC0000010024000B589B00023039304930593BD
:104BD000069307930268144B9A4202D009B05DF81D
:104BE00004FB03F5EC339A6D42F480429A659A6DAA
:104BF00002F480420192019ADA6C42F00202DA6415
:104C0000DB6C03F002030293029B4FF420430393F7
:104C100002230493032306930523079303A9034860
:104C2000FDF744FFDAE700BF003800400004004809
:104C300008B50268074B9A4200D008BD064A936D3A
:104C400023F4804393654FF420410448FEF718F89D
:104C5000F3E700BF003800400010024000040048A5
:104C600070B588B0002303930493059306930793CC
:104C700002681D4B9A4201D008B070BD03F5E033C5
:104C80009A6D42F480129A659A6D02F48012009235
:104C9000009ADA6C42F00802DA64DA6C02F0080278
:104CA0000192019ADA6C42F00402DA64DB6C03F0E0
:104CB00004030293029B0423039302260496032514
:104CC00006950824079403A90848FDF7EFFE4FF462
:104CD000805303930496002305930695079403A934
:104CE0000348FDF7E3FEC7E700500040000C004812
:104CF000000800487047000008B5084800F054F963
:104D00000020FDF775F94FF47A70FDF75FFE002083
:104D1000FDF78EF96420FDF759FEF1E7FC5D000810
:104D2000FEE7FEE7FEE770477047704708B5FDF7FE
:104D30003BFE08BD70B50D461646002404E0AFF3F7
:104D40000080287001340135B442F8DB304670BD74
:104D500070B51646002405E04D1C0878FFF798FE54
:104D600001342946B442F7DB304670BD08B503462E
:104D70000B4A126842B10A4A106803446A469342D9
:104D800006D8074A136008BD054A06491160F2E7D4
:104D900000F064F80C2303604FF0FF30F3E700BF2E
:104DA000E0010020F80300204FF0FF3070474FF47F
:104DB00000534B600020704701207047002070476F
:104DC0000F49D1F8883043F47003C1F888300D4B97
:104DD0001A6842F001021A60002098601A6822F0F6
:104DE000A85222F410221A604FF48052DA601A6836
:104DF00022F480221A6098614FF000638B60704744
:104E000000ED00E000100240DFF834D0002103E0A4
:104E10000C4B5B58435004310B480C4B42189A42E0
:104E2000F6D30B4A02E0002342F8043B094B9A42B6
:104E3000F9D3FFF7C5FF00F017F8FFF777FEFEE79D
:104E400000800120C05E000800000020400100201A
:104E500040010020F8030020FEE70000014B186825
:104E6000704700BFD800002070B50D4E0D4CA41B3C
:104E7000A4100025A54209D10B4E0C4C00F068FF90
:104E8000A41BA4100025A54205D170BD56F82530FD
:104E900098470135EEE756F8253098470135F2E797
:104EA000B05E0008B05E0008B05E0008B45E0008A6
:104EB00002440346934200D1704703F8011BF9E70F
:104EC0000FB40A4B13B51C6824B1A36913B920466B
:104ED00000F022FA05AB049AA1680193204600F085
:104EE000DBFB02B0BDE8104004B07047D8000020E2
:104EF00070B50E46054618B183690BB900F00CFA7F
:104F0000AB69AC6813B9284600F006FA234B9C4203
:104F100017D16C68A3891B071DD52369DBB1013E3E
:104F2000A36816F8011F013BA360E9B9002B2EDA34
:104F300022460A21284600F03FF8013011D00A200D
:104F400011E0174B9C4201D1AC68E3E7154B9C4242
:104F500008BFEC68DEE72146284600F07FF800280D
:104F6000DDD04FF0FF3070BD002B04DAA2699A4209
:104F700006DC0A2904D023685A1C22601970CFE786
:104F80002246284600F018F80130C9D1E9E7236825
:104F90000A205A1C22601870E5E700BF345E000842
:104FA000545E0008145E0008024B01461868FFF7C3
:104FB0009FBF00BFD8000020F8B50E461446054636
:104FC00018B183690BB900F0A7F9214B9C422AD193
:104FD0006C68A369A360A3891A072ED5236963B3FC
:104FE00023692068C01A6369F6B28342374604DC3D
:104FF0002146284600F026F928BBA368013BA360A0
:1050000023685A1C22601E7063690130834204D0F9
:10501000A389DB0719D50A2E17D12146284600F0AF
:1050200011F990B10FE00B4B9C4201D1AC68D0E775
:10503000094B9C4208BFEC68CBE72146284600F0AC
:105040000DF80028CCD04FF0FF373846F8BD00BF30
:10505000345E0008545E0008145E0008324B70B5E0
:105060001D6806460C4625B1AB6913B9284600F009
:1050700053F92E4B9C420FD16C68B4F90C309AB2A4
:1050800015072CD4D00611D40922326043F0400316
:10509000A3814FF0FF303EE0254B9C4201D1AC682C
:1050A000EBE7244B9C4208BFEC68E6E7510712D5BA
:1050B000616B41B104F14403994202D0304600F0E3
:1050C00019FA00236363A38923F02403A381002337
:1050D000636023692360A38943F00803A3812369E4
:1050E0004BB9A38903F42073B3F5007F03D02146A5
:1050F000304600F0BFF9A28912F001030CD0002362
:10510000A36063695B42A361236953B9B4F90C30AE
:1051100013F08000BAD170BD920758BF6369A360D5
:10512000F2E70020F7E700BFD8000020345E000857
:10513000545E0008145E00088A892DE9F041054696
:1051400010070C4658D44B68002B05DC0B6C002B69
:1051500002DC0020BDE8F081E66A002EF9D00023D1
:1051600012F480522F68216A2B6032D0606DA389BF
:105170005A0705D56368C01A636B0BB1236CC01A5C
:1051800000230246E66A216A2846B047431CA389E9
:1051900006D129681D2948D8294ACA40D60744D5CE
:1051A00000226260D9042269226004D5421C01D128
:1051B0002B6803B96065616B2F600029C9D004F1C9
:1051C0004403994202D0284600F094F9002060631D
:1051D000C0E701232846B047411CC8D12B68002BEB
:1051E000C5D01D2B01D0162B01D12F60B1E7A389AB
:1051F00043F04003A381ADE70F69002FA9D09307C7
:105200000E6808BF4B690F6018BF0023A6EB0708A4
:105210008B60B8F1000F9CDD43463A46216AA66ACE
:105220002846B047002806DCA38943F04003A38149
:105230004FF0FF308EE70744A8EB0008E9E700BF16
:105240000100402038B50B6905460C46DBB118B1AA
:1052500083690BB900F060F80C4B9C4209D16C6873
:10526000B4F90C307BB121462846BDE83840FFF741
:1052700063BF074B9C4201D1AC68F1E7054B9C42F0
:1052800008BFEC68ECE7002038BD00BF345E0008C2
:10529000545E0008145E0008002310B50446C0E9FF
:1052A0000033836081814366C281C0E90433836136
:1052B000194608225C30FFF7FBFD054B6362054B86
:1052C000A362054BE362054B2462236310BD00BF5C
:1052D000F55B0008175C00084F5C0008735C000871
:1052E000014900F085B800BF4552000870B54A1E5C
:1052F000682555430E4605F1740100F049F904464E
:1053000040B10021C0E900160C30A06005F1680230
:10531000FFF7CEFD204670BD836910B5044633BB50
:10532000C0E912330365124B124A1B68826298422D
:1053300004BF0123836100F01FF86060204600F085
:105340001BF8A060204600F017F80022E06004215E
:105350006068FFF7A1FF01220921A068FFF79CFF09
:1053600002221221E068FFF797FF0123A36110BD1D
:10537000105E0008E1520008F8B51B4B1E68B369C7
:10538000074613B93046FFF7C7FF4836D6E9013460
:10539000013B03D5336833B13668F7E7B4F90C50F5
:1053A0006DB16834F4E704213846FFF79FFF3060A1
:1053B0000028F1D10C233B6004462046F8BD0B4B7E
:1053C0006566C4E90055A560C4E90335C4E905551F
:1053D0000822294604F15C00FFF76AFDC4E90D5577
:1053E000C4E91255E9E700BF105E00080100FFFFA5
:1053F0002DE9F8438046894600F14804002614B997
:105400003046BDE8F883D4E90175013F01D5246831
:10541000F5E7AB89012B07D9B5F90E30013303D07D
:1054200029464046C84706436835EEE770B50E4644
:10543000B1F90E10002996B014461D4607DA002374
:105440002B60B3891A0610D44FF480630EE06A46CD
:1054500000F036FC0028F2DB019A02F47042A2F55B
:1054600000535A425A412A60EEE74023002023604D
:1054700016B070BD8B8973B59D0706460C4607D5DF
:1054800004F14703236023610123636102B070BD0F
:1054900001AB6A46FFF7CAFF00990546304600F0A7
:1054A00077F848B9B4F90C309A05EFD423F0030328
:1054B00043F00203A381E3E70D4BB362A3892060AD
:1054C00043F08003A381009B6361019B20615BB17A
:1054D000B4F90E10304600F005FC28B1A38923F082
:1054E000030343F00103A381A3891D43A581CDE7F5
:1054F000E152000838B50546002945D051F8043C72
:105500000C1F002BB8BFE41800F00EFC1F4A1368F4
:10551000104633B9636014602846BDE8384000F097
:1055200004BCA3420CD921686218934204BF1A68D4
:105530005B68636004BF521822600460ECE71346A6
:105540005A680AB1A242FAD919685818A0420BD178
:1055500020680144581882421960DDD110685268F1
:105560005A6001441960D7E702D90C232B60D3E7B6
:10557000206821188A4204BF11685268626004BF23
:10558000091821605C60C7E738BD00BFE801002052
:1055900070B5CD1C25F0030508350C2D38BF0C2542
:1055A000002D064601DBA94203D90C2333600020FD
:1055B00070BD00F0B9FB214A1468214691B9204C16
:1055C00023681BB9304600F005FB206029463046B1
:1055D00000F000FB431C24D10C233360304600F064
:1055E000A4FBE4E70B685B1B18D40B2B0FD90B60F3
:1055F000CD50CC18304600F098FB04F10B00231D71
:1056000020F00700C31AD3D05A42E250D0E78C42B0
:105610004B6816BF636013600C46EBE70C464968A5
:10562000CCE7C41C24F00304A04205D0211A304664
:1056300000F0D0FA0130CFD02560DBE7E801002090
:10564000EC0100209368013B002B10B4936008DA52
:105650009469A34201DB0A2903D15DF8044BFFF7EB
:10566000ABBC1368581C1060197008465DF8044BF9
:105670007047F8B506460F461446D518AC4201D11E
:10568000002007E03A4614F8011B3046FFF7DAFF26
:10569000431CF3D1F8BD00002DE9F04F0C469DB03E
:1056A00017461D46064618B183690BB9FFF734FE4D
:1056B0007C4B9C4258D17468A38918075ED5236936
:1056C000002B5BD00023099320238DF82930302351
:1056D0008DF82A3003954FF0010BB846454615F872
:1056E000013B0BB1252B54D1B8EB070A0BD0534625
:1056F0003A4621463046FFF7BCFF013000F0C28039
:10570000099B5344099398F80030002B00F0BA80AD
:1057100000234FF0FF32CDE90523049307938DF862
:1057200053301A93A846052218F8011B5E48FAF771
:10573000CFFE049B78BBD90644BF20228DF85320AE
:105740001A0744BF2B228DF853202A782A2A2AD000
:10575000079AA84600200A25414611F8013B303B34
:10576000092B69D960B324E0504B9C4201D1B46845
:10577000A2E74F4B9C4208BFF4689DE721463046A4
:10578000FFF76CFC00289DD04FF0FF301DB0BDE846
:10579000F08FA846A2E7444A801A0BFA00F018439B
:1057A00004904546BEE7039A111D12680391002A32
:1057B00001DB079204E0524243F002030792049394
:1057C00098F800302E2B0ED198F801302A2B38D1C2
:1057D000039B1A1D1B680392002BB8BF4FF0FF33C9
:1057E00008F102080593334D98F80010032228466B
:1057F000FAF76EFE40B14023401B03FA00F0049B11
:10580000034308F10108049398F800102A488DF822
:105810002810062208F10107FAF75AFE002837D0AF
:10582000264B1BBB039B073323F00703083303936B
:10583000099B4B44099350E705FB0232012088463F
:105840008AE7002308F10108059319460A25404616
:1058500010F8012B303A092A03D9002BC3D0059147
:10586000C1E705FB012101238046F0E703AB00936C
:105870002246134B04A93046AFF30080B0F1FF3F3E
:105880008146D5D1A3895B063FF57EAF09987DE7B8
:1058900003AB009322460A4B04A9304600F088F877
:1058A000ECE700BF345E0008745E0008545E000838
:1058B000145E00087A5E00087E5E000800000000AA
:1058C000735600082DE9F04791461F468A680B6918
:1058D000DDF820809342B8BF1346C9F8003091F834
:1058E000432006460C4612B10133C9F80030236844
:1058F000990642BFD9F800300233C9F80030256854
:1059000015F0060507D104F1190AE368D9F800205B
:105910009B1AAB4228DC94F843302268003318BF4E
:10592000012392062DD404F1430239463046C04784
:10593000013020D02368E568D9F8002003F0060381
:10594000042B08BFAD1AA36822690CBF25EAE575D0
:1059500000259342C4BF9B1AED184FF000091A347A
:105960004D451AD1002008E0012352463946304601
:10597000C047013003D14FF0FF30BDE8F08701355B
:10598000C3E7E1185A1C302081F84300224494F800
:10599000451082F843100233C5E7012322463946F9
:1059A0003046C0470130E6D009F10109D8E70000D0
:1059B0002DE9F04301F1430C0C46097E85B06E29B8
:1059C0001746064698460C9A00F0B38022D8632901
:1059D00036D00AD8002900F0B980582900F0838019
:1059E00004F1420584F8421032E0642901D06929AB
:1059F000F6D120681368050603F104012AD51B6857
:105A00001160002B03DA2D225B4284F843206F489B
:105A10000A2239E0732900F09D8008D86F2920D030
:105A20007029DDD1236843F02003236003E075294A
:105A300017D07829D4D1782384F84530644855E0CC
:105A40001368191D1B68116004F1420584F8423087
:105A500001238CE01B68116010F0400F18BF1BB2CF
:105A6000CFE713682568181D1060280601D51B684C
:105A700002E06806FBD51B8854486F2914BF0A2230
:105A80000822002184F843106568A560002DC0F24B
:105A90009580216821F004012160002B3DD1002D6B
:105AA00040F08E806546082A0BD12368DB0708D5B5
:105AB000236962689A42DEBF302305F8013C05F194
:105AC000FF35ACEB05032361CDF800803B4603AA0C
:105AD00021463046FFF7F6FE01304DD14FF0FF3042
